{
  "_format": "hh-sol-artifact-1",
  "contractName": "NFT",
  "sourceName": "contracts/NFT.sol",
  "abi": [
    {
      "inputs": [],
      "stateMutability": "nonpayable",
      "type": "constructor"
    },
    {
      "anonymous": false,
      "inputs": [
        {
          "indexed": true,
          "internalType": "address",
          "name": "account",
          "type": "address"
        },
        {
          "indexed": true,
          "internalType": "address",
          "name": "operator",
          "type": "address"
        },
        {
          "indexed": false,
          "internalType": "bool",
          "name": "approved",
          "type": "bool"
        }
      ],
      "name": "ApprovalForAll",
      "type": "event"
    },
    {
      "anonymous": false,
      "inputs": [
        {
          "indexed": true,
          "internalType": "address",
          "name": "previousOwner",
          "type": "address"
        },
        {
          "indexed": true,
          "internalType": "address",
          "name": "newOwner",
          "type": "address"
        }
      ],
      "name": "OwnershipTransferred",
      "type": "event"
    },
    {
      "anonymous": false,
      "inputs": [
        {
          "indexed": false,
          "internalType": "address",
          "name": "account",
          "type": "address"
        }
      ],
      "name": "Paused",
      "type": "event"
    },
    {
      "anonymous": false,
      "inputs": [
        {
          "indexed": true,
          "internalType": "address",
          "name": "operator",
          "type": "address"
        },
        {
          "indexed": true,
          "internalType": "address",
          "name": "from",
          "type": "address"
        },
        {
          "indexed": true,
          "internalType": "address",
          "name": "to",
          "type": "address"
        },
        {
          "indexed": false,
          "internalType": "uint256[]",
          "name": "ids",
          "type": "uint256[]"
        },
        {
          "indexed": false,
          "internalType": "uint256[]",
          "name": "values",
          "type": "uint256[]"
        }
      ],
      "name": "TransferBatch",
      "type": "event"
    },
    {
      "anonymous": false,
      "inputs": [
        {
          "indexed": true,
          "internalType": "address",
          "name": "operator",
          "type": "address"
        },
        {
          "indexed": true,
          "internalType": "address",
          "name": "from",
          "type": "address"
        },
        {
          "indexed": true,
          "internalType": "address",
          "name": "to",
          "type": "address"
        },
        {
          "indexed": false,
          "internalType": "uint256",
          "name": "id",
          "type": "uint256"
        },
        {
          "indexed": false,
          "internalType": "uint256",
          "name": "value",
          "type": "uint256"
        }
      ],
      "name": "TransferSingle",
      "type": "event"
    },
    {
      "anonymous": false,
      "inputs": [
        {
          "indexed": false,
          "internalType": "string",
          "name": "value",
          "type": "string"
        },
        {
          "indexed": true,
          "internalType": "uint256",
          "name": "id",
          "type": "uint256"
        }
      ],
      "name": "URI",
      "type": "event"
    },
    {
      "anonymous": false,
      "inputs": [
        {
          "indexed": false,
          "internalType": "address",
          "name": "account",
          "type": "address"
        }
      ],
      "name": "Unpaused",
      "type": "event"
    },
    {
      "inputs": [
        {
          "internalType": "address",
          "name": "account",
          "type": "address"
        },
        {
          "internalType": "uint256",
          "name": "id",
          "type": "uint256"
        }
      ],
      "name": "balanceOf",
      "outputs": [
        {
          "internalType": "uint256",
          "name": "",
          "type": "uint256"
        }
      ],
      "stateMutability": "view",
      "type": "function"
    },
    {
      "inputs": [
        {
          "internalType": "address[]",
          "name": "accounts",
          "type": "address[]"
        },
        {
          "internalType": "uint256[]",
          "name": "ids",
          "type": "uint256[]"
        }
      ],
      "name": "balanceOfBatch",
      "outputs": [
        {
          "internalType": "uint256[]",
          "name": "",
          "type": "uint256[]"
        }
      ],
      "stateMutability": "view",
      "type": "function"
    },
    {
      "inputs": [
        {
          "internalType": "address",
          "name": "account",
          "type": "address"
        },
        {
          "internalType": "uint256",
          "name": "id",
          "type": "uint256"
        },
        {
          "internalType": "uint256",
          "name": "value",
          "type": "uint256"
        }
      ],
      "name": "burn",
      "outputs": [],
      "stateMutability": "nonpayable",
      "type": "function"
    },
    {
      "inputs": [
        {
          "internalType": "address",
          "name": "account",
          "type": "address"
        },
        {
          "internalType": "uint256[]",
          "name": "ids",
          "type": "uint256[]"
        },
        {
          "internalType": "uint256[]",
          "name": "values",
          "type": "uint256[]"
        }
      ],
      "name": "burnBatch",
      "outputs": [],
      "stateMutability": "nonpayable",
      "type": "function"
    },
    {
      "inputs": [
        {
          "internalType": "uint256",
          "name": "id",
          "type": "uint256"
        }
      ],
      "name": "exists",
      "outputs": [
        {
          "internalType": "bool",
          "name": "",
          "type": "bool"
        }
      ],
      "stateMutability": "view",
      "type": "function"
    },
    {
      "inputs": [
        {
          "internalType": "address",
          "name": "account",
          "type": "address"
        },
        {
          "internalType": "address",
          "name": "operator",
          "type": "address"
        }
      ],
      "name": "isApprovedForAll",
      "outputs": [
        {
          "internalType": "bool",
          "name": "",
          "type": "bool"
        }
      ],
      "stateMutability": "view",
      "type": "function"
    },
    {
      "inputs": [
        {
          "internalType": "address",
          "name": "owner",
          "type": "address"
        },
        {
          "internalType": "uint256",
          "name": "id",
          "type": "uint256"
        },
        {
          "internalType": "uint256",
          "name": "amount",
          "type": "uint256"
        },
        {
          "internalType": "bytes",
          "name": "data",
          "type": "bytes"
        }
      ],
      "name": "merge",
      "outputs": [],
      "stateMutability": "nonpayable",
      "type": "function"
    },
    {
      "inputs": [],
      "name": "metadata",
      "outputs": [
        {
          "internalType": "string",
          "name": "",
          "type": "string"
        }
      ],
      "stateMutability": "view",
      "type": "function"
    },
    {
      "inputs": [
        {
          "internalType": "address",
          "name": "account",
          "type": "address"
        },
        {
          "internalType": "uint256",
          "name": "id",
          "type": "uint256"
        },
        {
          "internalType": "uint256",
          "name": "amount",
          "type": "uint256"
        },
        {
          "internalType": "bytes",
          "name": "data",
          "type": "bytes"
        },
        {
          "internalType": "string",
          "name": "_tokenURI",
          "type": "string"
        }
      ],
      "name": "mint",
      "outputs": [],
      "stateMutability": "nonpayable",
      "type": "function"
    },
    {
      "inputs": [
        {
          "internalType": "address",
          "name": "account",
          "type": "address"
        },
        {
          "internalType": "uint256[]",
          "name": "ids",
          "type": "uint256[]"
        },
        {
          "internalType": "uint256[]",
          "name": "amounts",
          "type": "uint256[]"
        },
        {
          "internalType": "bytes",
          "name": "data",
          "type": "bytes"
        }
      ],
      "name": "mintBatch",
      "outputs": [],
      "stateMutability": "nonpayable",
      "type": "function"
    },
    {
      "inputs": [],
      "name": "owner",
      "outputs": [
        {
          "internalType": "address",
          "name": "",
          "type": "address"
        }
      ],
      "stateMutability": "view",
      "type": "function"
    },
    {
      "inputs": [],
      "name": "pause",
      "outputs": [],
      "stateMutability": "nonpayable",
      "type": "function"
    },
    {
      "inputs": [],
      "name": "paused",
      "outputs": [
        {
          "internalType": "bool",
          "name": "",
          "type": "bool"
        }
      ],
      "stateMutability": "view",
      "type": "function"
    },
    {
      "inputs": [],
      "name": "renounceOwnership",
      "outputs": [],
      "stateMutability": "nonpayable",
      "type": "function"
    },
    {
      "inputs": [
        {
          "internalType": "address",
          "name": "from",
          "type": "address"
        },
        {
          "internalType": "address",
          "name": "to",
          "type": "address"
        },
        {
          "internalType": "uint256[]",
          "name": "ids",
          "type": "uint256[]"
        },
        {
          "internalType": "uint256[]",
          "name": "amounts",
          "type": "uint256[]"
        },
        {
          "internalType": "bytes",
          "name": "data",
          "type": "bytes"
        }
      ],
      "name": "safeBatchTransferFrom",
      "outputs": [],
      "stateMutability": "nonpayable",
      "type": "function"
    },
    {
      "inputs": [
        {
          "internalType": "address",
          "name": "from",
          "type": "address"
        },
        {
          "internalType": "address",
          "name": "to",
          "type": "address"
        },
        {
          "internalType": "uint256",
          "name": "id",
          "type": "uint256"
        },
        {
          "internalType": "uint256",
          "name": "amount",
          "type": "uint256"
        },
        {
          "internalType": "bytes",
          "name": "data",
          "type": "bytes"
        }
      ],
      "name": "safeTransferFrom",
      "outputs": [],
      "stateMutability": "nonpayable",
      "type": "function"
    },
    {
      "inputs": [
        {
          "internalType": "address",
          "name": "operator",
          "type": "address"
        },
        {
          "internalType": "bool",
          "name": "approved",
          "type": "bool"
        }
      ],
      "name": "setApprovalForAll",
      "outputs": [],
      "stateMutability": "nonpayable",
      "type": "function"
    },
    {
      "inputs": [
        {
          "internalType": "uint256",
          "name": "tokenId",
          "type": "uint256"
        },
        {
          "internalType": "string",
          "name": "_tokenURI",
          "type": "string"
        }
      ],
      "name": "setURI",
      "outputs": [],
      "stateMutability": "nonpayable",
      "type": "function"
    },
    {
      "inputs": [
        {
          "internalType": "bytes4",
          "name": "interfaceId",
          "type": "bytes4"
        }
      ],
      "name": "supportsInterface",
      "outputs": [
        {
          "internalType": "bool",
          "name": "",
          "type": "bool"
        }
      ],
      "stateMutability": "view",
      "type": "function"
    },
    {
      "inputs": [
        {
          "internalType": "uint256",
          "name": "id",
          "type": "uint256"
        }
      ],
      "name": "totalSupply",
      "outputs": [
        {
          "internalType": "uint256",
          "name": "",
          "type": "uint256"
        }
      ],
      "stateMutability": "view",
      "type": "function"
    },
    {
      "inputs": [
        {
          "internalType": "address",
          "name": "newOwner",
          "type": "address"
        }
      ],
      "name": "transferOwnership",
      "outputs": [],
      "stateMutability": "nonpayable",
      "type": "function"
    },
    {
      "inputs": [],
      "name": "unpause",
      "outputs": [],
      "stateMutability": "nonpayable",
      "type": "function"
    },
    {
      "inputs": [
        {
          "internalType": "uint256",
          "name": "tokenId",
          "type": "uint256"
        }
      ],
      "name": "uri",
      "outputs": [
        {
          "internalType": "string",
          "name": "",
          "type": "string"
        }
      ],
      "stateMutability": "view",
      "type": "function"
    },
    {
      "inputs": [
        {
          "internalType": "uint256",
          "name": "_amount",
          "type": "uint256"
        }
      ],
      "name": "withdraw",
      "outputs": [],
      "stateMutability": "payable",
      "type": "function"
    },
    {
      "inputs": [],
      "name": "withdrawAll",
      "outputs": [],
      "stateMutability": "payable",
      "type": "function"
    }
  ],
  "bytecode": "0x60806040523480156200001157600080fd5b50604080518082019091526007815266697066733a2f2f60c81b60208201526200003b816200005a565b50620000473362000073565b6003805460ff60a01b19169055620001a8565b80516200006f906002906020840190620000c5565b5050565b600380546001600160a01b038381166001600160a01b0319831681179093556040519116919082907f8be0079c531659141344cd1fd0a4f28419497f9722a3daafe3b4186f6b6457e090600090a35050565b828054620000d3906200016b565b90600052602060002090601f016020900481019282620000f7576000855562000142565b82601f106200011257805160ff191683800117855562000142565b8280016001018555821562000142579182015b828111156200014257825182559160200191906001019062000125565b506200015092915062000154565b5090565b5b8082111562000150576000815560010162000155565b600181811c908216806200018057607f821691505b60208210811415620001a257634e487b7160e01b600052602260045260246000fd5b50919050565b612ad680620001b86000396000f3fe6080604052600436106101655760003560e01c80636b20c454116100d1578063a22cb4651161008a578063e985e9c511610064578063e985e9c51461041b578063f242432a14610464578063f2fde38b14610484578063f5298aca146104a457600080fd5b8063a22cb465146103ae578063bd85b039146103ce578063c1341c4f146103fb57600080fd5b80636b20c45414610314578063715018a6146103345780638456cb5914610349578063853828b61461035e578063862440e2146103665780638da5cb5b1461038657600080fd5b8063392f37e911610123578063392f37e91461024f5780633f4ba83a146102645780634e1273f4146102795780634f558e79146102a65780635c975abb146102d557806369a68228146102f457600080fd5b8062fdd58e1461016a57806301ffc9a71461019d5780630e89341c146101cd5780631f7fdffa146101fa5780632e1a7d4d1461021c5780632eb2c2d61461022f575b600080fd5b34801561017657600080fd5b5061018a6101853660046121f6565b6104c4565b6040519081526020015b60405180910390f35b3480156101a957600080fd5b506101bd6101b83660046123c2565b61055b565b6040519015158152602001610194565b3480156101d957600080fd5b506101ed6101e83660046123fa565b6105ad565b6040516101949190612645565b34801561020657600080fd5b5061021a610215366004612128565b6105ee565b005b61021a61022a3660046123fa565b6106a9565b34801561023b57600080fd5b5061021a61024a366004611fb1565b6106fb565b34801561025b57600080fd5b506101ed610792565b34801561027057600080fd5b5061021a610820565b34801561028557600080fd5b506102996102943660046122f8565b610854565b6040516101949190612604565b3480156102b257600080fd5b506101bd6102c13660046123fa565b600090815260046020526040902054151590565b3480156102e157600080fd5b50600354600160a01b900460ff166101bd565b34801561030057600080fd5b5061021a61030f366004612251565b6109b5565b34801561032057600080fd5b5061021a61032f3660046120b8565b610b1b565b34801561034057600080fd5b5061021a610b63565b34801561035557600080fd5b5061021a610b97565b61021a610bc9565b34801561037257600080fd5b5061021a610381366004612412565b610c17565b34801561039257600080fd5b506003546040516001600160a01b039091168152602001610194565b3480156103ba57600080fd5b5061021a6103c93660046121bc565b610c60565b3480156103da57600080fd5b5061018a6103e93660046123fa565b60009081526004602052604090205490565b34801561040757600080fd5b5061021a6104163660046122a3565b610c6f565b34801561042757600080fd5b506101bd610436366004611f7f565b6001600160a01b03918216600090815260016020908152604080832093909416825291909152205460ff1690565b34801561047057600080fd5b5061021a61047f366004612056565b610cec565b34801561049057600080fd5b5061021a61049f366004611f5e565b610d31565b3480156104b057600080fd5b5061021a6104bf36600461221f565b610dc9565b60006001600160a01b0383166105355760405162461bcd60e51b815260206004820152602b60248201527f455243313135353a2062616c616e636520717565727920666f7220746865207a60448201526a65726f206164647265737360a81b60648201526084015b60405180910390fd5b506000908152602081815260408083206001600160a01b03949094168352929052205490565b60006001600160e01b03198216636cdb3d1360e11b148061058c57506001600160e01b031982166303a24d0760e21b145b806105a757506301ffc9a760e01b6001600160e01b03198316145b92915050565b60606105b882610e0c565b6000838152600a602090815260409182902091516105d8939291016124b2565b6040516020818303038152906040529050919050565b6003546001600160a01b031633146106185760405162461bcd60e51b815260040161052c906127ff565b60005b83518110156106965784600b600086848151811061064957634e487b7160e01b600052603260045260246000fd5b6020026020010151815260200190815260200160002060006101000a8154816001600160a01b0302191690836001600160a01b03160217905550808061068e906129a2565b91505061061b565b506106a384848484610ea0565b50505050565b6003546001600160a01b031633146106d35760405162461bcd60e51b815260040161052c906127ff565b604051339082156108fc029083906000818181858888f193505050506106f857600080fd5b50565b6001600160a01b03851633148061071757506107178533610436565b61077e5760405162461bcd60e51b815260206004820152603260248201527f455243313135353a207472616e736665722063616c6c6572206973206e6f74206044820152711bdddb995c881b9bdc88185c1c1c9bdd995960721b606482015260840161052c565b61078b8585858585611016565b5050505050565b6008805461079f9061293b565b80601f01602080910402602001604051908101604052809291908181526020018280546107cb9061293b565b80156108185780601f106107ed57610100808354040283529160200191610818565b820191906000526020600020905b8154815290600101906020018083116107fb57829003601f168201915b505050505081565b6003546001600160a01b0316331461084a5760405162461bcd60e51b815260040161052c906127ff565b6108526111dc565b565b606081518351146108b95760405162461bcd60e51b815260206004820152602960248201527f455243313135353a206163636f756e747320616e6420696473206c656e677468604482015268040dad2e6dac2e8c6d60bb1b606482015260840161052c565b600083516001600160401b038111156108e257634e487b7160e01b600052604160045260246000fd5b60405190808252806020026020018201604052801561090b578160200160208202803683370190505b50905060005b84518110156109ad5761097285828151811061093d57634e487b7160e01b600052603260045260246000fd5b602002602001015185838151811061096557634e487b7160e01b600052603260045260246000fd5b60200260200101516104c4565b82828151811061099257634e487b7160e01b600052603260045260246000fd5b60209081029190910101526109a6816129a2565b9050610911565b509392505050565b6003546001600160a01b031633146109df5760405162461bcd60e51b815260040161052c906127ff565b6000838152600b60205260409020546001600160a01b03858116911614610a5d5760405162461bcd60e51b815260206004820152602c60248201527f4f6e6c79206f776e6572206f662074686520746f6b656e2063616e206d65726760448201526b652074686520746f6b656e7360a01b606482015260840161052c565b60098054906000610a6d836129a2565b91905055506106a38484600184600a60008981526020019081526020016000208054610a989061293b565b80601f0160208091040260200160405190810160405280929190818152602001828054610ac49061293b565b8015610b115780601f10610ae657610100808354040283529160200191610b11565b820191906000526020600020905b815481529060010190602001808311610af457829003601f168201915b5050505050610c6f565b6001600160a01b038316331480610b375750610b378333610436565b610b535760405162461bcd60e51b815260040161052c906126e4565b610b5e838383611279565b505050565b6003546001600160a01b03163314610b8d5760405162461bcd60e51b815260040161052c906127ff565b6108526000611423565b6003546001600160a01b03163314610bc15760405162461bcd60e51b815260040161052c906127ff565b610852611475565b6003546001600160a01b03163314610bf35760405162461bcd60e51b815260040161052c906127ff565b60405133904780156108fc02916000818181858888f1935050505061085257600080fd5b6003546001600160a01b03163314610c415760405162461bcd60e51b815260040161052c906127ff565b6000828152600a602090815260409091208251610b5e92840190611d91565b610c6b3383836114fd565b5050565b6003546001600160a01b03163314610c995760405162461bcd60e51b815260040161052c906127ff565b6000848152600a602090815260409091208251610cb892840190611d91565b506000848152600b6020526040902080546001600160a01b0319166001600160a01b03871617905561078b858585856115de565b6001600160a01b038516331480610d085750610d088533610436565b610d245760405162461bcd60e51b815260040161052c906126e4565b61078b85858585856116b4565b6003546001600160a01b03163314610d5b5760405162461bcd60e51b815260040161052c906127ff565b6001600160a01b038116610dc05760405162461bcd60e51b815260206004820152602660248201527f4f776e61626c653a206e6577206f776e657220697320746865207a65726f206160448201526564647265737360d01b606482015260840161052c565b6106f881611423565b6001600160a01b038316331480610de55750610de58333610436565b610e015760405162461bcd60e51b815260040161052c906126e4565b610b5e8383836117d1565b606060028054610e1b9061293b565b80601f0160208091040260200160405190810160405280929190818152602001828054610e479061293b565b8015610e945780601f10610e6957610100808354040283529160200191610e94565b820191906000526020600020905b815481529060010190602001808311610e7757829003601f168201915b50505050509050919050565b6001600160a01b038416610ec65760405162461bcd60e51b815260040161052c9061287c565b8151835114610ee75760405162461bcd60e51b815260040161052c90612834565b33610ef781600087878787611833565b60005b8451811015610fae57838181518110610f2357634e487b7160e01b600052603260045260246000fd5b6020026020010151600080878481518110610f4e57634e487b7160e01b600052603260045260246000fd5b602002602001015181526020019081526020016000206000886001600160a01b03166001600160a01b031681526020019081526020016000206000828254610f9691906128e0565b90915550819050610fa6816129a2565b915050610efa565b50846001600160a01b031660006001600160a01b0316826001600160a01b03167f4a39dc06d4c0dbc64b70af90fd698a233a518aa5d07e595d983b8c0526c8f7fb8787604051610fff929190612617565b60405180910390a461078b81600087878787611841565b81518351146110375760405162461bcd60e51b815260040161052c90612834565b6001600160a01b03841661105d5760405162461bcd60e51b815260040161052c9061272d565b3361106c818787878787611833565b60005b845181101561116e57600085828151811061109a57634e487b7160e01b600052603260045260246000fd5b6020026020010151905060008583815181106110c657634e487b7160e01b600052603260045260246000fd5b602090810291909101810151600084815280835260408082206001600160a01b038e1683529093529190912054909150818110156111165760405162461bcd60e51b815260040161052c906127b5565b6000838152602081815260408083206001600160a01b038e8116855292528083208585039055908b168252812080548492906111539084906128e0565b9250508190555050505080611167906129a2565b905061106f565b50846001600160a01b0316866001600160a01b0316826001600160a01b03167f4a39dc06d4c0dbc64b70af90fd698a233a518aa5d07e595d983b8c0526c8f7fb87876040516111be929190612617565b60405180910390a46111d4818787878787611841565b505050505050565b600354600160a01b900460ff1661122c5760405162461bcd60e51b815260206004820152601460248201527314185d5cd8589b194e881b9bdd081c185d5cd95960621b604482015260640161052c565b6003805460ff60a01b191690557f5db9ee0a495bf2e6ff9c91a7834c1ba4fdd244a5e8aa4e537bd38aeae4b073aa335b6040516001600160a01b03909116815260200160405180910390a1565b6001600160a01b03831661129f5760405162461bcd60e51b815260040161052c90612772565b80518251146112c05760405162461bcd60e51b815260040161052c90612834565b60003390506112e381856000868660405180602001604052806000815250611833565b60005b83518110156113c457600084828151811061131157634e487b7160e01b600052603260045260246000fd5b60200260200101519050600084838151811061133d57634e487b7160e01b600052603260045260246000fd5b602090810291909101810151600084815280835260408082206001600160a01b038c16835290935291909120549091508181101561138d5760405162461bcd60e51b815260040161052c906126a0565b6000928352602083815260408085206001600160a01b038b16865290915290922091039055806113bc816129a2565b9150506112e6565b5060006001600160a01b0316846001600160a01b0316826001600160a01b03167f4a39dc06d4c0dbc64b70af90fd698a233a518aa5d07e595d983b8c0526c8f7fb8686604051611415929190612617565b60405180910390a450505050565b600380546001600160a01b038381166001600160a01b0319831681179093556040519116919082907f8be0079c531659141344cd1fd0a4f28419497f9722a3daafe3b4186f6b6457e090600090a35050565b600354600160a01b900460ff16156114c25760405162461bcd60e51b815260206004820152601060248201526f14185d5cd8589b194e881c185d5cd95960821b604482015260640161052c565b6003805460ff60a01b1916600160a01b1790557f62e78cea01bee320cd4e420270b5ea74000d11b0c9f74754ebdbfc544b05a25861125c3390565b816001600160a01b0316836001600160a01b031614156115715760405162461bcd60e51b815260206004820152602960248201527f455243313135353a2073657474696e6720617070726f76616c20737461747573604482015268103337b91039b2b63360b91b606482015260840161052c565b6001600160a01b03838116600081815260016020908152604080832094871680845294825291829020805460ff191686151590811790915591519182527f17307eab39ab6107e8899845ad3d59bd9653f200f220920489ca2b5937696c31910160405180910390a3505050565b6001600160a01b0384166116045760405162461bcd60e51b815260040161052c9061287c565b3361162481600087611615886119ac565b61161e886119ac565b87611833565b6000848152602081815260408083206001600160a01b0389168452909152812080548592906116549084906128e0565b909155505060408051858152602081018590526001600160a01b0380881692600092918516917fc3d58168c5ae7397731d063d5bbf3d657854427343f4c083240f7aacaa2d0f62910160405180910390a461078b81600087878787611a05565b6001600160a01b0384166116da5760405162461bcd60e51b815260040161052c9061272d565b336116ea818787611615886119ac565b6000848152602081815260408083206001600160a01b038a1684529091529020548381101561172b5760405162461bcd60e51b815260040161052c906127b5565b6000858152602081815260408083206001600160a01b038b81168552925280832087850390559088168252812080548692906117689084906128e0565b909155505060408051868152602081018690526001600160a01b03808916928a821692918616917fc3d58168c5ae7397731d063d5bbf3d657854427343f4c083240f7aacaa2d0f62910160405180910390a46117c8828888888888611a05565b50505050505050565b6117dc838383611acf565b6000828152600a6020526040902080546117f59061293b565b159050610b5e576000828152600a6020526040812061181391611e15565b506000908152600b6020526040902080546001600160a01b031916905550565b6111d4868686868686611bd0565b6001600160a01b0384163b156111d45760405163bc197c8160e01b81526001600160a01b0385169063bc197c81906118859089908990889088908890600401612561565b602060405180830381600087803b15801561189f57600080fd5b505af19250505080156118cf575060408051601f3d908101601f191682019092526118cc918101906123de565b60015b61197c576118db6129e9565b806308c379a0141561191557506118f0612a01565b806118fb5750611917565b8060405162461bcd60e51b815260040161052c9190612645565b505b60405162461bcd60e51b815260206004820152603460248201527f455243313135353a207472616e7366657220746f206e6f6e20455243313135356044820152732932b1b2b4bb32b91034b6b83632b6b2b73a32b960611b606482015260840161052c565b6001600160e01b0319811663bc197c8160e01b146117c85760405162461bcd60e51b815260040161052c90612658565b604080516001808252818301909252606091600091906020808301908036833701905050905082816000815181106119f457634e487b7160e01b600052603260045260246000fd5b602090810291909101015292915050565b6001600160a01b0384163b156111d45760405163f23a6e6160e01b81526001600160a01b0385169063f23a6e6190611a4990899089908890889088906004016125bf565b602060405180830381600087803b158015611a6357600080fd5b505af1925050508015611a93575060408051601f3d908101601f19168201909252611a90918101906123de565b60015b611a9f576118db6129e9565b6001600160e01b0319811663f23a6e6160e01b146117c85760405162461bcd60e51b815260040161052c90612658565b6001600160a01b038316611af55760405162461bcd60e51b815260040161052c90612772565b33611b2481856000611b06876119ac565b611b0f876119ac565b60405180602001604052806000815250611833565b6000838152602081815260408083206001600160a01b038816845290915290205482811015611b655760405162461bcd60e51b815260040161052c906126a0565b6000848152602081815260408083206001600160a01b03898116808652918452828520888703905582518981529384018890529092908616917fc3d58168c5ae7397731d063d5bbf3d657854427343f4c083240f7aacaa2d0f62910160405180910390a45050505050565b611bde868686868686611d22565b6001600160a01b038516611c815760005b8351811015611c7f57828181518110611c1857634e487b7160e01b600052603260045260246000fd5b602002602001015160046000868481518110611c4457634e487b7160e01b600052603260045260246000fd5b602002602001015181526020019081526020016000206000828254611c6991906128e0565b90915550611c789050816129a2565b9050611bef565b505b6001600160a01b0384166111d45760005b83518110156117c857828181518110611cbb57634e487b7160e01b600052603260045260246000fd5b602002602001015160046000868481518110611ce757634e487b7160e01b600052603260045260246000fd5b602002602001015181526020019081526020016000206000828254611d0c91906128f8565b90915550611d1b9050816129a2565b9050611c92565b600354600160a01b900460ff16156111d45760405162461bcd60e51b815260206004820152602c60248201527f455243313135355061757361626c653a20746f6b656e207472616e736665722060448201526b1dda1a5b19481c185d5cd95960a21b606482015260840161052c565b828054611d9d9061293b565b90600052602060002090601f016020900481019282611dbf5760008555611e05565b82601f10611dd857805160ff1916838001178555611e05565b82800160010185558215611e05579182015b82811115611e05578251825591602001919060010190611dea565b50611e11929150611e4b565b5090565b508054611e219061293b565b6000825580601f10611e31575050565b601f0160209004906000526020600020908101906106f891905b5b80821115611e115760008155600101611e4c565b80356001600160a01b0381168114611e7757600080fd5b919050565b600082601f830112611e8c578081fd5b81356020611e99826128bd565b604051611ea68282612976565b8381528281019150858301600585901b87018401881015611ec5578586fd5b855b85811015611ee357813584529284019290840190600101611ec7565b5090979650505050505050565b600082601f830112611f00578081fd5b81356001600160401b03811115611f1957611f196129d3565b604051611f30601f8301601f191660200182612976565b818152846020838601011115611f44578283fd5b816020850160208301379081016020019190915292915050565b600060208284031215611f6f578081fd5b611f7882611e60565b9392505050565b60008060408385031215611f91578081fd5b611f9a83611e60565b9150611fa860208401611e60565b90509250929050565b600080600080600060a08688031215611fc8578081fd5b611fd186611e60565b9450611fdf60208701611e60565b935060408601356001600160401b0380821115611ffa578283fd5b61200689838a01611e7c565b9450606088013591508082111561201b578283fd5b61202789838a01611e7c565b9350608088013591508082111561203c578283fd5b5061204988828901611ef0565b9150509295509295909350565b600080600080600060a0868803121561206d578081fd5b61207686611e60565b945061208460208701611e60565b9350604086013592506060860135915060808601356001600160401b038111156120ac578182fd5b61204988828901611ef0565b6000806000606084860312156120cc578283fd5b6120d584611e60565b925060208401356001600160401b03808211156120f0578384fd5b6120fc87838801611e7c565b93506040860135915080821115612111578283fd5b5061211e86828701611e7c565b9150509250925092565b6000806000806080858703121561213d578384fd5b61214685611e60565b935060208501356001600160401b0380821115612161578485fd5b61216d88838901611e7c565b94506040870135915080821115612182578384fd5b61218e88838901611e7c565b935060608701359150808211156121a3578283fd5b506121b087828801611ef0565b91505092959194509250565b600080604083850312156121ce578182fd5b6121d783611e60565b9150602083013580151581146121eb578182fd5b809150509250929050565b60008060408385031215612208578182fd5b61221183611e60565b946020939093013593505050565b600080600060608486031215612233578081fd5b61223c84611e60565b95602085013595506040909401359392505050565b60008060008060808587031215612266578182fd5b61226f85611e60565b9350602085013592506040850135915060608501356001600160401b03811115612297578182fd5b6121b087828801611ef0565b600080600080600060a086880312156122ba578283fd5b6122c386611e60565b9450602086013593506040860135925060608601356001600160401b03808211156122ec578283fd5b61202789838a01611ef0565b6000806040838503121561230a578182fd5b82356001600160401b0380821115612320578384fd5b818501915085601f830112612333578384fd5b81356020612340826128bd565b60405161234d8282612976565b8381528281019150858301600585901b870184018b101561236c578889fd5b8896505b848710156123955761238181611e60565b835260019690960195918301918301612370565b50965050860135925050808211156123ab578283fd5b506123b885828601611e7c565b9150509250929050565b6000602082840312156123d3578081fd5b8135611f7881612a8a565b6000602082840312156123ef578081fd5b8151611f7881612a8a565b60006020828403121561240b578081fd5b5035919050565b60008060408385031215612424578182fd5b8235915060208301356001600160401b03811115612440578182fd5b6123b885828601611ef0565b6000815180845260208085019450808401835b8381101561247b5781518752958201959082019060010161245f565b509495945050505050565b6000815180845261249e81602086016020860161290f565b601f01601f19169290920160200192915050565b6000835160206124c5828583890161290f565b8454918401918390600181811c90808316806124e257607f831692505b85831081141561250057634e487b7160e01b88526022600452602488fd5b808015612514576001811461252557612551565b60ff19851688528388019550612551565b60008b815260209020895b858110156125495781548a820152908401908801612530565b505083880195505b50939a9950505050505050505050565b6001600160a01b0386811682528516602082015260a06040820181905260009061258d9083018661244c565b828103606084015261259f818661244c565b905082810360808401526125b38185612486565b98975050505050505050565b6001600160a01b03868116825285166020820152604081018490526060810183905260a0608082018190526000906125f990830184612486565b979650505050505050565b602081526000611f78602083018461244c565b60408152600061262a604083018561244c565b828103602084015261263c818561244c565b95945050505050565b602081526000611f786020830184612486565b60208082526028908201527f455243313135353a204552433131353552656365697665722072656a656374656040820152676420746f6b656e7360c01b606082015260800190565b60208082526024908201527f455243313135353a206275726e20616d6f756e7420657863656564732062616c604082015263616e636560e01b606082015260800190565b60208082526029908201527f455243313135353a2063616c6c6572206973206e6f74206f776e6572206e6f7260408201526808185c1c1c9bdd995960ba1b606082015260800190565b60208082526025908201527f455243313135353a207472616e7366657220746f20746865207a65726f206164604082015264647265737360d81b606082015260800190565b60208082526023908201527f455243313135353a206275726e2066726f6d20746865207a65726f206164647260408201526265737360e81b606082015260800190565b6020808252602a908201527f455243313135353a20696e73756666696369656e742062616c616e636520666f60408201526939103a3930b739b332b960b11b606082015260800190565b6020808252818101527f4f776e61626c653a2063616c6c6572206973206e6f7420746865206f776e6572604082015260600190565b60208082526028908201527f455243313135353a2069647320616e6420616d6f756e7473206c656e677468206040820152670dad2e6dac2e8c6d60c31b606082015260800190565b60208082526021908201527f455243313135353a206d696e7420746f20746865207a65726f206164647265736040820152607360f81b606082015260800190565b60006001600160401b038211156128d6576128d66129d3565b5060051b60200190565b600082198211156128f3576128f36129bd565b500190565b60008282101561290a5761290a6129bd565b500390565b60005b8381101561292a578181015183820152602001612912565b838111156106a35750506000910152565b600181811c9082168061294f57607f821691505b6020821081141561297057634e487b7160e01b600052602260045260246000fd5b50919050565b601f8201601f191681016001600160401b038111828210171561299b5761299b6129d3565b6040525050565b60006000198214156129b6576129b66129bd565b5060010190565b634e487b7160e01b600052601160045260246000fd5b634e487b7160e01b600052604160045260246000fd5b600060033d11156129fe57600481823e5160e01c5b90565b600060443d1015612a0f5790565b6040516003193d81016004833e81513d6001600160401b038160248401118184111715612a3e57505050505090565b8285019150815181811115612a565750505050505090565b843d8701016020828501011115612a705750505050505090565b612a7f60208286010187612976565b509095945050505050565b6001600160e01b0319811681146106f857600080fdfea2646970667358221220bcd47515f69ab4242c324bfdcc7a048268aab9f8c70e70bcce68c1c21efdf95964736f6c63430008040033",
  "linkReferences": {},
  "deployedLinkReferences": {}
}