{
  "_format": "hh-sol-artifact-1",
  "contractName": "NFTRedeemContract",
  "sourceName": "contracts/NFTRedeemContract.sol",
  "abi": [
    {
      "inputs": [
        {
          "internalType": "uint256",
          "name": "_couponsAllowed",
          "type": "uint256"
        },
        {
          "internalType": "uint256",
          "name": "_noOfLevels",
          "type": "uint256"
        },
        {
          "internalType": "uint256[]",
          "name": "_valueForCoupon",
          "type": "uint256[]"
        },
        {
          "internalType": "uint256[]",
          "name": "_valueForBurning",
          "type": "uint256[]"
        },
        {
          "internalType": "uint256[]",
          "name": "_countForUpgrading",
          "type": "uint256[]"
        }
      ],
      "stateMutability": "nonpayable",
      "type": "constructor"
    },
    {
      "inputs": [],
      "name": "NFTsBurnt",
      "outputs": [
        {
          "internalType": "uint256",
          "name": "",
          "type": "uint256"
        }
      ],
      "stateMutability": "view",
      "type": "function"
    },
    {
      "inputs": [],
      "name": "burntForUpgrading",
      "outputs": [
        {
          "internalType": "uint256",
          "name": "",
          "type": "uint256"
        }
      ],
      "stateMutability": "view",
      "type": "function"
    },
    {
      "inputs": [
        {
          "internalType": "uint256",
          "name": "",
          "type": "uint256"
        }
      ],
      "name": "countForUpgrading",
      "outputs": [
        {
          "internalType": "uint256",
          "name": "",
          "type": "uint256"
        }
      ],
      "stateMutability": "view",
      "type": "function"
    },
    {
      "inputs": [],
      "name": "couponsUsed",
      "outputs": [
        {
          "internalType": "uint256",
          "name": "",
          "type": "uint256"
        }
      ],
      "stateMutability": "view",
      "type": "function"
    },
    {
      "inputs": [
        {
          "internalType": "address",
          "name": "owner",
          "type": "address"
        },
        {
          "internalType": "uint256",
          "name": "_currentLevel",
          "type": "uint256"
        },
        {
          "internalType": "uint256",
          "name": "_currentCount",
          "type": "uint256"
        }
      ],
      "name": "mergeNFTs",
      "outputs": [],
      "stateMutability": "nonpayable",
      "type": "function"
    },
    {
      "inputs": [],
      "name": "noOfLevels",
      "outputs": [
        {
          "internalType": "uint256",
          "name": "",
          "type": "uint256"
        }
      ],
      "stateMutability": "view",
      "type": "function"
    },
    {
      "inputs": [
        {
          "internalType": "address",
          "name": "owner",
          "type": "address"
        },
        {
          "internalType": "uint256",
          "name": "_level",
          "type": "uint256"
        }
      ],
      "name": "redeemCoupon",
      "outputs": [
        {
          "internalType": "uint256",
          "name": "",
          "type": "uint256"
        }
      ],
      "stateMutability": "nonpayable",
      "type": "function"
    },
    {
      "inputs": [
        {
          "internalType": "address",
          "name": "owner",
          "type": "address"
        },
        {
          "internalType": "uint256",
          "name": "_level",
          "type": "uint256"
        }
      ],
      "name": "useNFTForValue",
      "outputs": [],
      "stateMutability": "nonpayable",
      "type": "function"
    },
    {
      "inputs": [
        {
          "internalType": "uint256",
          "name": "",
          "type": "uint256"
        }
      ],
      "name": "valueForBurning",
      "outputs": [
        {
          "internalType": "uint256",
          "name": "",
          "type": "uint256"
        }
      ],
      "stateMutability": "view",
      "type": "function"
    },
    {
      "inputs": [
        {
          "internalType": "uint256",
          "name": "",
          "type": "uint256"
        }
      ],
      "name": "valueForCoupon",
      "outputs": [
        {
          "internalType": "uint256",
          "name": "",
          "type": "uint256"
        }
      ],
      "stateMutability": "view",
      "type": "function"
    }
  ],
  "bytecode": "0x608060405234801561001057600080fd5b506040516108ce3803806108ce83398101604081905261002f91610338565b600085116100775760405162461bcd60e51b815260206004820152601060248201526f574841543f204e6f20636f75706f6e7360801b60448201526064015b60405180910390fd5b600084116100c75760405162461bcd60e51b815260206004820152601760248201527f43616e6e6f742068617665207a65726f206c6576656c73000000000000000000604482015260640161006e565b838351146101255760405162461bcd60e51b815260206004820152602560248201527f436f75706f6e2056616c7565206e6f7420676976656e20666f7220616c6c206c6044820152646576656c7360d81b606482015260840161006e565b838251146101845760405162461bcd60e51b815260206004820152602660248201527f4275726e696e672056616c7565206e6f7420676976656e20666f7220616c6c206044820152656c6576656c7360d01b606482015260840161006e565b61018f6001856103d0565b8151146101de5760405162461bcd60e51b815260206004820152601f60248201527f5570677261646520526571756972656d656e7473206e6f742070726f70657200604482015260640161006e565b600085815560018190556002819055600355815161020390600690602085019061023b565b50825161021790600590602086019061023b565b506004849055805161023090600790602084019061023b565b505050505050610409565b828054828255906000526020600020908101928215610276579160200282015b8281111561027657825182559160200191906001019061025b565b50610282929150610286565b5090565b5b808211156102825760008155600101610287565b600082601f8301126102ab578081fd5b815160206001600160401b03808311156102c7576102c76103f3565b8260051b604051601f19603f830116810181811084821117156102ec576102ec6103f3565b6040528481528381019250868401828801850189101561030a578687fd5b8692505b8583101561032c57805184529284019260019290920191840161030e565b50979650505050505050565b600080600080600060a0868803121561034f578081fd5b85516020870151604088015191965094506001600160401b0380821115610374578283fd5b61038089838a0161029b565b94506060880151915080821115610395578283fd5b6103a189838a0161029b565b935060808801519150808211156103b6578283fd5b506103c38882890161029b565b9150509295509295909350565b6000828210156103ee57634e487b7160e01b81526011600452602481fd5b500390565b634e487b7160e01b600052604160045260246000fd5b6104b6806104186000396000f3fe608060405234801561001057600080fd5b506004361061009e5760003560e01c80637a4b67c1116100665780637a4b67c1146100f657806392844812146101095780639b370b8c1461011e578063d906626814610131578063f134054a1461014457600080fd5b80631972fcf8146100a357806326be7d09146100be57806330635cd3146100c75780635523cae3146100da57806372eb82e2146100ed575b600080fd5b6100ac60035481565b60405190815260200160405180910390f35b6100ac60015481565b6100ac6100d53660046103e9565b61014d565b6100ac6100e8366004610444565b610236565b6100ac60045481565b6100ac610104366004610444565b610257565b61011c6101173660046103e9565b610267565b005b61011c61012c366004610412565b6102b4565b6100ac61013f366004610444565b6103bd565b6100ac60025481565b6000805460015410156101aa5760006005838154811061017d57634e487b7160e01b600052603260045260246000fd5b90600052602060002001549050600180600082825461019c919061045c565b909155509091506102309050565b60405162461bcd60e51b815260206004820152604a60248201527f596f752063616e207374696c6c206d6572676520746865204e46547320666f7260448201527f2062657474657220636f75706f6e73206f72206275726e207468656d20746f206064820152696765742076616c75652160b01b608482015260a4015b60405180910390fd5b92915050565b6007818154811061024657600080fd5b600091825260209091200154905081565b6006818154811061024657600080fd5b60006006828154811061028a57634e487b7160e01b600052603260045260246000fd5b906000526020600020015490506001600260008282546102aa919061045c565b9091555050505050565b60045482106102f95760405162461bcd60e51b8152602060048201526011602482015270105b1c9958591e4813585e1959081bdd5d607a1b6044820152606401610227565b6007828154811061031a57634e487b7160e01b600052603260045260246000fd5b90600052602060002001548110156103805760405162461bcd60e51b8152602060048201526024808201527f596f7520646f6e74206861766520656e6f756768204e46547320746f207570676044820152637261646560e01b6064820152608401610227565b600782815481106103a157634e487b7160e01b600052603260045260246000fd5b9060005260206000200154600360008282546102aa919061045c565b6005818154811061024657600080fd5b80356001600160a01b03811681146103e457600080fd5b919050565b600080604083850312156103fb578182fd5b610404836103cd565b946020939093013593505050565b600080600060608486031215610426578081fd5b61042f846103cd565b95602085013595506040909401359392505050565b600060208284031215610455578081fd5b5035919050565b6000821982111561047b57634e487b7160e01b81526011600452602481fd5b50019056fea264697066735822122002bcaebe6e1c9b279964fe2795aaf9a19f374d67f7eaa0978ed04ee2e2e5c23064736f6c63430008040033",
  "linkReferences": {},
  "deployedLinkReferences": {}
}