{
  "_format": "hh-sol-artifact-1",
  "contractName": "BrandRules",
  "sourceName": "contracts/BrandRules.sol",
  "abi": [
    {
      "inputs": [
        {
          "internalType": "address payable",
          "name": "_advertiserAddress",
          "type": "address"
        },
        {
          "internalType": "address payable",
          "name": "_publisherAddress",
          "type": "address"
        },
        {
          "internalType": "uint256",
          "name": "_budget",
          "type": "uint256"
        },
        {
          "internalType": "uint256",
          "name": "_baseFee",
          "type": "uint256"
        },
        {
          "internalType": "uint256",
          "name": "_mintFeeBudget",
          "type": "uint256"
        },
        {
          "internalType": "uint256",
          "name": "_mergeBudget",
          "type": "uint256"
        },
        {
          "internalType": "uint256",
          "name": "_couponBudget",
          "type": "uint256"
        },
        {
          "internalType": "uint256",
          "name": "_swapsMoreThan20Penalty",
          "type": "uint256"
        },
        {
          "internalType": "uint256",
          "name": "_mintsLessThan20Penalty",
          "type": "uint256"
        },
        {
          "internalType": "uint256",
          "name": "_burnsMoreThan50Penatly",
          "type": "uint256"
        }
      ],
      "stateMutability": "nonpayable",
      "type": "constructor"
    },
    {
      "anonymous": false,
      "inputs": [
        {
          "indexed": true,
          "internalType": "address",
          "name": "previousOwner",
          "type": "address"
        },
        {
          "indexed": true,
          "internalType": "address",
          "name": "newOwner",
          "type": "address"
        }
      ],
      "name": "OwnershipTransferred",
      "type": "event"
    },
    {
      "inputs": [],
      "name": "owner",
      "outputs": [
        {
          "internalType": "address",
          "name": "",
          "type": "address"
        }
      ],
      "stateMutability": "view",
      "type": "function"
    },
    {
      "inputs": [],
      "name": "renounceOwnership",
      "outputs": [],
      "stateMutability": "nonpayable",
      "type": "function"
    },
    {
      "inputs": [],
      "name": "requirementNotMet",
      "outputs": [],
      "stateMutability": "nonpayable",
      "type": "function"
    },
    {
      "inputs": [],
      "name": "signContract",
      "outputs": [],
      "stateMutability": "nonpayable",
      "type": "function"
    },
    {
      "inputs": [
        {
          "internalType": "address",
          "name": "newOwner",
          "type": "address"
        }
      ],
      "name": "transferOwnership",
      "outputs": [],
      "stateMutability": "nonpayable",
      "type": "function"
    }
  ],
  "bytecode": "0x608060405234801561001057600080fd5b506040516104a43803806104a483398101604081905261002f9161010a565b6100383361009e565b600180546001600160a01b039b8c166001600160a01b031991821617909155600280549a909b16991698909817909855600395909555600493909355600591909155600655600755600992909255600891909155600a55600b805460ff1916905561018b565b600080546001600160a01b038381166001600160a01b0319831681178455604051919092169283917f8be0079c531659141344cd1fd0a4f28419497f9722a3daafe3b4186f6b6457e09190a35050565b80516001600160a01b038116811461010557600080fd5b919050565b6000806000806000806000806000806101408b8d031215610129578586fd5b6101328b6100ee565b995061014060208c016100ee565b985060408b0151975060608b0151965060808b0151955060a08b0151945060c08b0151935060e08b015192506101008b015191506101208b015190509295989b9194979a5092959850565b61030a8061019a6000396000f3fe608060405234801561001057600080fd5b50600436106100575760003560e01c8063199629ea1461005c578063715018a6146100665780638da5cb5b1461006e578063b8b4f1a01461008d578063f2fde38b14610095575b600080fd5b6100646100a8565b005b6100646100dd565b600054604080516001600160a01b039092168252519081900360200190f35b610064610111565b6100646100a3366004610271565b610186565b6000546001600160a01b031633146100db5760405162461bcd60e51b81526004016100d29061029f565b60405180910390fd5b565b6000546001600160a01b031633146101075760405162461bcd60e51b81526004016100d29061029f565b6100db6000610221565b6002546001600160a01b031633146101775760405162461bcd60e51b815260206004820152602360248201527f436f6d70616e792077616e7473206120646966666572656e74207075626c69736044820152623432b960e91b60648201526084016100d2565b600b805460ff19166001179055565b6000546001600160a01b031633146101b05760405162461bcd60e51b81526004016100d29061029f565b6001600160a01b0381166102155760405162461bcd60e51b815260206004820152602660248201527f4f776e61626c653a206e6577206f776e657220697320746865207a65726f206160448201526564647265737360d01b60648201526084016100d2565b61021e81610221565b50565b600080546001600160a01b038381166001600160a01b0319831681178455604051919092169283917f8be0079c531659141344cd1fd0a4f28419497f9722a3daafe3b4186f6b6457e09190a35050565b600060208284031215610282578081fd5b81356001600160a01b0381168114610298578182fd5b9392505050565b6020808252818101527f4f776e61626c653a2063616c6c6572206973206e6f7420746865206f776e657260408201526060019056fea264697066735822122000ea9caadd74ee608c5c28e705757a12e4418c2698668a3c1513f4bd5fff5cbd64736f6c63430008040033",
  "linkReferences": {},
  "deployedLinkReferences": {}
}