{
  "_format": "hh-sol-artifact-1",
  "contractName": "FactoryContract",
  "sourceName": "contracts/FactoryContract.sol",
  "abi": [
    {
      "inputs": [],
      "stateMutability": "nonpayable",
      "type": "constructor"
    },
    {
      "anonymous": false,
      "inputs": [
        {
          "indexed": true,
          "internalType": "address",
          "name": "previousOwner",
          "type": "address"
        },
        {
          "indexed": true,
          "internalType": "address",
          "name": "newOwner",
          "type": "address"
        }
      ],
      "name": "OwnershipTransferred",
      "type": "event"
    },
    {
      "inputs": [
        {
          "internalType": "address",
          "name": "_address",
          "type": "address"
        }
      ],
      "name": "addCompanyAddress",
      "outputs": [],
      "stateMutability": "nonpayable",
      "type": "function"
    },
    {
      "inputs": [
        {
          "internalType": "address",
          "name": "_address",
          "type": "address"
        }
      ],
      "name": "checkIfAllowed",
      "outputs": [
        {
          "internalType": "bool",
          "name": "",
          "type": "bool"
        }
      ],
      "stateMutability": "view",
      "type": "function"
    },
    {
      "inputs": [
        {
          "internalType": "uint256",
          "name": "",
          "type": "uint256"
        }
      ],
      "name": "companyAddresses",
      "outputs": [
        {
          "internalType": "address",
          "name": "",
          "type": "address"
        }
      ],
      "stateMutability": "view",
      "type": "function"
    },
    {
      "inputs": [],
      "name": "createCouponNFTContract",
      "outputs": [
        {
          "internalType": "contract CouponNFT",
          "name": "",
          "type": "address"
        }
      ],
      "stateMutability": "nonpayable",
      "type": "function"
    },
    {
      "inputs": [
        {
          "internalType": "uint256",
          "name": "_id",
          "type": "uint256"
        }
      ],
      "name": "getContractAddressFromId",
      "outputs": [
        {
          "internalType": "contract CouponNFT",
          "name": "",
          "type": "address"
        }
      ],
      "stateMutability": "view",
      "type": "function"
    },
    {
      "inputs": [
        {
          "internalType": "uint256",
          "name": "",
          "type": "uint256"
        }
      ],
      "name": "merchantIdToCouponContractAddress",
      "outputs": [
        {
          "internalType": "contract CouponNFT",
          "name": "",
          "type": "address"
        }
      ],
      "stateMutability": "view",
      "type": "function"
    },
    {
      "inputs": [
        {
          "internalType": "address",
          "name": "",
          "type": "address"
        },
        {
          "internalType": "address",
          "name": "",
          "type": "address"
        },
        {
          "internalType": "uint256[]",
          "name": "",
          "type": "uint256[]"
        },
        {
          "internalType": "uint256[]",
          "name": "",
          "type": "uint256[]"
        },
        {
          "internalType": "bytes",
          "name": "",
          "type": "bytes"
        }
      ],
      "name": "onERC1155BatchReceived",
      "outputs": [
        {
          "internalType": "bytes4",
          "name": "",
          "type": "bytes4"
        }
      ],
      "stateMutability": "nonpayable",
      "type": "function"
    },
    {
      "inputs": [
        {
          "internalType": "address",
          "name": "",
          "type": "address"
        },
        {
          "internalType": "address",
          "name": "",
          "type": "address"
        },
        {
          "internalType": "uint256",
          "name": "",
          "type": "uint256"
        },
        {
          "internalType": "uint256",
          "name": "",
          "type": "uint256"
        },
        {
          "internalType": "bytes",
          "name": "",
          "type": "bytes"
        }
      ],
      "name": "onERC1155Received",
      "outputs": [
        {
          "internalType": "bytes4",
          "name": "",
          "type": "bytes4"
        }
      ],
      "stateMutability": "nonpayable",
      "type": "function"
    },
    {
      "inputs": [],
      "name": "owner",
      "outputs": [
        {
          "internalType": "address",
          "name": "",
          "type": "address"
        }
      ],
      "stateMutability": "view",
      "type": "function"
    },
    {
      "inputs": [],
      "name": "renounceOwnership",
      "outputs": [],
      "stateMutability": "nonpayable",
      "type": "function"
    },
    {
      "inputs": [
        {
          "internalType": "bytes4",
          "name": "interfaceId",
          "type": "bytes4"
        }
      ],
      "name": "supportsInterface",
      "outputs": [
        {
          "internalType": "bool",
          "name": "",
          "type": "bool"
        }
      ],
      "stateMutability": "view",
      "type": "function"
    },
    {
      "inputs": [
        {
          "internalType": "address",
          "name": "newOwner",
          "type": "address"
        }
      ],
      "name": "transferOwnership",
      "outputs": [],
      "stateMutability": "nonpayable",
      "type": "function"
    }
  ],
  "bytecode": "0x608060405234801561001057600080fd5b5061001a33610024565b6000600155610074565b600080546001600160a01b038381166001600160a01b0319831681178455604051919092169283917f8be0079c531659141344cd1fd0a4f28419497f9722a3daafe3b4186f6b6457e09190a35050565b6144c7806100836000396000f3fe60806040523480156200001157600080fd5b5060043610620000c35760003560e01c80638da5cb5b116200007a5780638da5cb5b146200017d57806399687845146200018f578063bbd8ee7d14620001a6578063bc197c8114620001d2578063f23a6e61146200020e578063f2fde38b146200023057600080fd5b806301621ccd14620000c857806301ffc9a714620000f45780630a7c358d146200010b57806318bec44214620001245780632a0f14a61462000147578063715018a61462000173575b600080fd5b620000df620000d93660046200068d565b62000247565b60405190151581526020015b60405180910390f35b620000df62000105366004620007d0565b620002bf565b620001226200011c3660046200068d565b620002f7565b005b6200012e6200037f565b6040516001600160a01b039091168152602001620000eb565b6200012e62000158366004620007fa565b6002602052600090815260409020546001600160a01b031681565b620001226200040c565b6000546001600160a01b03166200012e565b6200012e620001a0366004620007fa565b62000447565b6200012e620001b7366004620007fa565b6000908152600260205260409020546001600160a01b031690565b620001f4620001e3366004620006b1565b63bc197c8160e01b95945050505050565b6040516001600160e01b03199091168152602001620000eb565b620001f46200021f36600462000765565b63f23a6e6160e01b95945050505050565b62000122620002413660046200068d565b62000472565b6000805b600354811015620002b657600381815481106200027857634e487b7160e01b600052603260045260246000fd5b6000918252602090912001546001600160a01b0384811691161415620002a15750600192915050565b80620002ad8162000897565b9150506200024b565b50600092915050565b60006001600160e01b03198216630271189760e51b1480620002f157506301ffc9a760e01b6001600160e01b03198316145b92915050565b6000546001600160a01b031633146200032d5760405162461bcd60e51b8152600401620003249062000813565b60405180910390fd5b600380546001810182556000919091527fc2575a0e9e593c00f959f8c92f12db2869c3395a3b0502d05e2516446f71f85b0180546001600160a01b0319166001600160a01b0392909216919091179055565b60008033604051620003919062000564565b6001600160a01b039091168152602001604051809103906000f080158015620003be573d6000803e3d6000fd5b5060018054600090815260026020526040812080546001600160a01b0319166001600160a01b03851617905581549293509091829190620004019083906200087c565b909155509092915050565b6000546001600160a01b03163314620004395760405162461bcd60e51b8152600401620003249062000813565b62000445600062000514565b565b600381815481106200045857600080fd5b6000918252602090912001546001600160a01b0316905081565b6000546001600160a01b031633146200049f5760405162461bcd60e51b8152600401620003249062000813565b6001600160a01b038116620005065760405162461bcd60e51b815260206004820152602660248201527f4f776e61626c653a206e6577206f776e657220697320746865207a65726f206160448201526564647265737360d01b606482015260840162000324565b620005118162000514565b50565b600080546001600160a01b038381166001600160a01b0319831681178455604051919092169283917f8be0079c531659141344cd1fd0a4f28419497f9722a3daafe3b4186f6b6457e09190a35050565b613bb080620008e283390190565b80356001600160a01b03811681146200058a57600080fd5b919050565b600082601f830112620005a0578081fd5b8135602067ffffffffffffffff821115620005bf57620005bf620008cb565b8160051b620005d082820162000848565b838152828101908684018388018501891015620005eb578687fd5b8693505b858410156200060f578035835260019390930192918401918401620005ef565b50979650505050505050565b600082601f8301126200062c578081fd5b813567ffffffffffffffff811115620006495762000649620008cb565b6200065e601f8201601f191660200162000848565b81815284602083860101111562000673578283fd5b816020850160208301379081016020019190915292915050565b6000602082840312156200069f578081fd5b620006aa8262000572565b9392505050565b600080600080600060a08688031215620006c9578081fd5b620006d48662000572565b9450620006e46020870162000572565b9350604086013567ffffffffffffffff8082111562000701578283fd5b6200070f89838a016200058f565b9450606088013591508082111562000725578283fd5b6200073389838a016200058f565b9350608088013591508082111562000749578283fd5b5062000758888289016200061b565b9150509295509295909350565b600080600080600060a086880312156200077d578081fd5b620007888662000572565b9450620007986020870162000572565b93506040860135925060608601359150608086013567ffffffffffffffff811115620007c2578182fd5b62000758888289016200061b565b600060208284031215620007e2578081fd5b81356001600160e01b031981168114620006aa578182fd5b6000602082840312156200080c578081fd5b5035919050565b6020808252818101527f4f776e61626c653a2063616c6c6572206973206e6f7420746865206f776e6572604082015260600190565b604051601f8201601f1916810167ffffffffffffffff81118282101715620008745762000874620008cb565b604052919050565b60008219821115620008925762000892620008b5565b500190565b6000600019821415620008ae57620008ae620008b5565b5060010190565b634e487b7160e01b600052601160045260246000fd5b634e487b7160e01b600052604160045260246000fdfe6101406040523480156200001257600080fd5b5060405162003bb038038062003bb083398101604081905262000035916200034a565b806040518060400160405280600481526020016326a0ac2d60e11b815250604051806040016040528060018152602001603160f81b81525060405180604001604052806007815260200166697066733a2f2f60c81b8152506200009e816200018c60201b60201c565b50620000aa33620001a5565b6003805460ff60a01b19169055815160208084019190912082518383012060e08290526101008190524660a0818152604080517f8b73c3c69bb8fe3d512ecc4cf759cc79239f7b179b0ffacaa9a75d522b39400f81880181905281830187905260608201869052608082019490945230818401528151808203909301835260c00190528051940193909320919290916080523060601b60c052610120525062000169925060008051602062003b908339815191529150839050620001f7565b506200018560008051602062003b9083398151915282620001f7565b50620003b7565b8051620001a1906002906020840190620002a4565b5050565b600380546001600160a01b038381166001600160a01b0319831681179093556040519116919082907f8be0079c531659141344cd1fd0a4f28419497f9722a3daafe3b4186f6b6457e090600090a35050565b60008281526005602090815260408083206001600160a01b0385168452909152902054620001a1908390839060ff16620001a15760008281526005602090815260408083206001600160a01b03851684529091529020805460ff19166001179055620002603390565b6001600160a01b0316816001600160a01b0316837f2f8788117e7eff1d82e926ec794901d17c78024a50270940304540a733656f0d60405160405180910390a45050565b828054620002b2906200037a565b90600052602060002090601f016020900481019282620002d6576000855562000321565b82601f10620002f157805160ff191683800117855562000321565b8280016001018555821562000321579182015b828111156200032157825182559160200191906001019062000304565b506200032f92915062000333565b5090565b5b808211156200032f576000815560010162000334565b6000602082840312156200035c578081fd5b81516001600160a01b038116811462000373578182fd5b9392505050565b600181811c908216806200038f57607f821691505b60208210811415620003b157634e487b7160e01b600052602260045260246000fd5b50919050565b60805160a05160c05160601c60e05161010051610120516137866200040a60003960006125260152600061257501526000612550015260006124a9015260006124d3015260006124fd01526137866000f3fe6080604052600436106101c15760003560e01c80636b20c454116100f7578063a22cb46511610095578063e985e9c511610064578063e985e9c514610537578063f242432a14610580578063f2fde38b146105a0578063f5298aca146105c057600080fd5b8063a22cb46514610496578063bd85b039146104b6578063d5391393146104e3578063d547741f1461051757600080fd5b8063862440e2116100d1578063862440e2146104195780638da5cb5b1461043957806391d1485414610461578063a217fddf1461048157600080fd5b80636b20c454146103cf578063715018a6146103ef5780638456cb591461040457600080fd5b806336568abe116101645780634f558e791161013e5780634f558e791461035b578063564b81ef1461038a5780635724db051461039d5780635c975abb146103b057600080fd5b806336568abe146102f95780633f4ba83a146103195780634e1273f41461032e57600080fd5b8063248a9ca3116101a0578063248a9ca3146102565780632eb2c2d6146102865780632f2ff15d146102a857806330828e92146102c857600080fd5b8062fdd58e146101c657806301ffc9a7146101f95780630e89341c14610229575b600080fd5b3480156101d257600080fd5b506101e66101e1366004612aca565b6105e0565b6040519081526020015b60405180910390f35b34801561020557600080fd5b50610219610214366004612c29565b610677565b60405190151581526020016101f0565b34801561023557600080fd5b50610249610244366004612bef565b610697565b6040516101f09190612f67565b34801561026257600080fd5b506101e6610271366004612bef565b60009081526005602052604090206001015490565b34801561029257600080fd5b506102a66102a13660046128d3565b6106d8565b005b3480156102b457600080fd5b506102a66102c3366004612c07565b61076f565b3480156102d457600080fd5b506102e86102e3366004612bef565b61079a565b6040516101f0959493929190613222565b34801561030557600080fd5b506102a6610314366004612c07565b6108f0565b34801561032557600080fd5b506102a661096e565b34801561033a57600080fd5b5061034e610349366004612b25565b6109a2565b6040516101f09190612eea565b34801561036757600080fd5b50610219610376366004612bef565b600090815260046020526040902054151590565b34801561039657600080fd5b50466101e6565b6101e66103ab366004612a84565b610b03565b3480156103bc57600080fd5b50600354600160a01b900460ff16610219565b3480156103db57600080fd5b506102a66103ea3660046129da565b610cc7565b3480156103fb57600080fd5b506102a6610d0a565b34801561041057600080fd5b506102a6610d3e565b34801561042557600080fd5b506102a6610434366004612c61565b610d70565b34801561044557600080fd5b506003546040516001600160a01b0390911681526020016101f0565b34801561046d57600080fd5b5061021961047c366004612c07565b610db9565b34801561048d57600080fd5b506101e6600081565b3480156104a257600080fd5b506102a66104b1366004612a4a565b610de4565b3480156104c257600080fd5b506101e66104d1366004612bef565b60009081526004602052604090205490565b3480156104ef57600080fd5b506101e67f9f2df0fed2c77648de5860a4cc508cd0818c85b8b8a1ab4ceeef8d981c8956a681565b34801561052357600080fd5b506102a6610532366004612c07565b610def565b34801561054357600080fd5b506102196105523660046128a1565b6001600160a01b03918216600090815260016020908152604080832093909416825291909152205460ff1690565b34801561058c57600080fd5b506102a661059b366004612978565b610e15565b3480156105ac57600080fd5b506102a66105bb366004612887565b610e5a565b3480156105cc57600080fd5b506102a66105db366004612af3565b610ef5565b60006001600160a01b0383166106515760405162461bcd60e51b815260206004820152602b60248201527f455243313135353a2062616c616e636520717565727920666f7220746865207a60448201526a65726f206164647265737360a81b60648201526084015b60405180910390fd5b506000908152602081815260408083206001600160a01b03949094168352929052205490565b600061068282610f38565b80610691575061069182610f88565b92915050565b60606106a282610f93565b60008381526007602090815260409182902091516106c293929101612d4d565b6040516020818303038152906040529050919050565b6001600160a01b0385163314806106f457506106f48533610552565b61075b5760405162461bcd60e51b815260206004820152603260248201527f455243313135353a207472616e736665722063616c6c6572206973206e6f74206044820152711bdddb995c881b9bdc88185c1c1c9bdd995960721b6064820152608401610648565b6107688585858585611027565b5050505050565b60008281526005602052604090206001015461078b81336111ed565b6107958383611251565b505050565b600881815481106107aa57600080fd5b90600052602060002090600502016000915090508060000154908060010154908060020180546107d9906134ad565b80601f0160208091040260200160405190810160405280929190818152602001828054610805906134ad565b80156108525780601f1061082757610100808354040283529160200191610852565b820191906000526020600020905b81548152906001019060200180831161083557829003601f168201915b50505050509080600301549080600401805461086d906134ad565b80601f0160208091040260200160405190810160405280929190818152602001828054610899906134ad565b80156108e65780601f106108bb576101008083540402835291602001916108e6565b820191906000526020600020905b8154815290600101906020018083116108c957829003601f168201915b5050505050905085565b6001600160a01b03811633146109605760405162461bcd60e51b815260206004820152602f60248201527f416363657373436f6e74726f6c3a2063616e206f6e6c792072656e6f756e636560448201526e103937b632b9903337b91039b2b63360891b6064820152608401610648565b61096a82826112d7565b5050565b6003546001600160a01b031633146109985760405162461bcd60e51b815260040161064890613121565b6109a061133e565b565b60608151835114610a075760405162461bcd60e51b815260206004820152602960248201527f455243313135353a206163636f756e747320616e6420696473206c656e677468604482015268040dad2e6dac2e8c6d60bb1b6064820152608401610648565b600083516001600160401b03811115610a3057634e487b7160e01b600052604160045260246000fd5b604051908082528060200260200182016040528015610a59578160200160208202803683370190505b50905060005b8451811015610afb57610ac0858281518110610a8b57634e487b7160e01b600052603260045260246000fd5b6020026020010151858381518110610ab357634e487b7160e01b600052603260045260246000fd5b60200260200101516105e0565b828281518110610ae057634e487b7160e01b600052603260045260246000fd5b6020908102919091010152610af481613514565b9050610a5f565b509392505050565b600080610b0f836113db565b9050610b3b7f9f2df0fed2c77648de5860a4cc508cd0818c85b8b8a1ab4ceeef8d981c8956a682610db9565b610b915760405162461bcd60e51b815260206004820152602160248201527f5369676e617475726520696e76616c6964206f7220756e617574686f72697a656044820152601960fa1b6064820152608401610648565b8260200135341015610be55760405162461bcd60e51b815260206004820152601c60248201527f496e73756666696369656e742066756e647320746f2072656465656d000000006044820152606401610648565b610c0881846000013585606001356040518060200160405280600081525061143b565b6008805460018101825560009190915283906005027ff3f7a9fe364faab93b216da50a3214154f22a0a2b415b23a84c8169e8b636ee301610c4982826135fb565b5050610c59600680546001019055565b610c868185856000013560016040518060400160405280600381526020016203078360ec1b815250610e15565b7fdd610711fd2f5aefa08593ee5000eaf7e055fcb79649dfd7ba7b21b86402c7718333604051610cb792919061319e565b60405180910390a1505035919050565b6001600160a01b038316331480610ce35750610ce38333610552565b610cff5760405162461bcd60e51b815260040161064890613006565b61079583838361154b565b6003546001600160a01b03163314610d345760405162461bcd60e51b815260040161064890613121565b6109a060006116f5565b6003546001600160a01b03163314610d685760405162461bcd60e51b815260040161064890613121565b6109a0611747565b6003546001600160a01b03163314610d9a5760405162461bcd60e51b815260040161064890613121565b60008281526007602090815260409091208251610795928401906126e2565b60009182526005602090815260408084206001600160a01b0393909316845291905290205460ff1690565b61096a3383836117cf565b600082815260056020526040902060010154610e0b81336111ed565b61079583836112d7565b6001600160a01b038516331480610e315750610e318533610552565b610e4d5760405162461bcd60e51b815260040161064890613006565b61076885858585856118b0565b6003546001600160a01b03163314610e845760405162461bcd60e51b815260040161064890613121565b6001600160a01b038116610ee95760405162461bcd60e51b815260206004820152602660248201527f4f776e61626c653a206e6577206f776e657220697320746865207a65726f206160448201526564647265737360d01b6064820152608401610648565b610ef2816116f5565b50565b6001600160a01b038316331480610f115750610f118333610552565b610f2d5760405162461bcd60e51b815260040161064890613006565b6107958383836119cd565b60006001600160e01b03198216636cdb3d1360e11b1480610f6957506001600160e01b031982166303a24d0760e21b145b8061069157506301ffc9a760e01b6001600160e01b0319831614610691565b600061069182611ace565b606060028054610fa2906134ad565b80601f0160208091040260200160405190810160405280929190818152602001828054610fce906134ad565b801561101b5780601f10610ff05761010080835404028352916020019161101b565b820191906000526020600020905b815481529060010190602001808311610ffe57829003601f168201915b50505050509050919050565b81518351146110485760405162461bcd60e51b815260040161064890613156565b6001600160a01b03841661106e5760405162461bcd60e51b81526004016106489061304f565b3361107d818787878787611af3565b60005b845181101561117f5760008582815181106110ab57634e487b7160e01b600052603260045260246000fd5b6020026020010151905060008583815181106110d757634e487b7160e01b600052603260045260246000fd5b602090810291909101810151600084815280835260408082206001600160a01b038e1683529093529190912054909150818110156111275760405162461bcd60e51b8152600401610648906130d7565b6000838152602081815260408083206001600160a01b038e8116855292528083208585039055908b16825281208054849290611164908490613304565b925050819055505050508061117890613514565b9050611080565b50846001600160a01b0316866001600160a01b0316826001600160a01b03167f4a39dc06d4c0dbc64b70af90fd698a233a518aa5d07e595d983b8c0526c8f7fb87876040516111cf929190612efd565b60405180910390a46111e5818787878787611b01565b505050505050565b6111f78282610db9565b61096a5761120f816001600160a01b03166014611c6c565b61121a836020611c6c565b60405160200161122b929190612dd2565b60408051601f198184030181529082905262461bcd60e51b825261064891600401612f67565b61125b8282610db9565b61096a5760008281526005602090815260408083206001600160a01b03851684529091529020805460ff191660011790556112933390565b6001600160a01b0316816001600160a01b0316837f2f8788117e7eff1d82e926ec794901d17c78024a50270940304540a733656f0d60405160405180910390a45050565b6112e18282610db9565b1561096a5760008281526005602090815260408083206001600160a01b0385168085529252808320805460ff1916905551339285917ff6391f5c32d9c69d2a47ea670b442974b53935d1edc7fd64eb21e047a839171b9190a45050565b600354600160a01b900460ff1661138e5760405162461bcd60e51b815260206004820152601460248201527314185d5cd8589b194e881b9bdd081c185d5cd95960621b6044820152606401610648565b6003805460ff60a01b191690557f5db9ee0a495bf2e6ff9c91a7834c1ba4fdd244a5e8aa4e537bd38aeae4b073aa335b6040516001600160a01b03909116815260200160405180910390a1565b6000806113e783611e4d565b9050611434816113fa6080860186613259565b8080601f016020809104026020016040519081016040528093929190818152602001838380828437600092019190915250611edd92505050565b9392505050565b6001600160a01b03841661149b5760405162461bcd60e51b815260206004820152602160248201527f455243313135353a206d696e7420746f20746865207a65726f206164647265736044820152607360f81b6064820152608401610648565b336114bb816000876114ac88611ef9565b6114b588611ef9565b87611af3565b6000848152602081815260408083206001600160a01b0389168452909152812080548592906114eb908490613304565b909155505060408051858152602081018590526001600160a01b0380881692600092918516917fc3d58168c5ae7397731d063d5bbf3d657854427343f4c083240f7aacaa2d0f62910160405180910390a461076881600087878787611f52565b6001600160a01b0383166115715760405162461bcd60e51b815260040161064890613094565b80518251146115925760405162461bcd60e51b815260040161064890613156565b60003390506115b581856000868660405180602001604052806000815250611af3565b60005b83518110156116965760008482815181106115e357634e487b7160e01b600052603260045260246000fd5b60200260200101519050600084838151811061160f57634e487b7160e01b600052603260045260246000fd5b602090810291909101810151600084815280835260408082206001600160a01b038c16835290935291909120549091508181101561165f5760405162461bcd60e51b815260040161064890612fc2565b6000928352602083815260408085206001600160a01b038b168652909152909220910390558061168e81613514565b9150506115b8565b5060006001600160a01b0316846001600160a01b0316826001600160a01b03167f4a39dc06d4c0dbc64b70af90fd698a233a518aa5d07e595d983b8c0526c8f7fb86866040516116e7929190612efd565b60405180910390a450505050565b600380546001600160a01b038381166001600160a01b0319831681179093556040519116919082907f8be0079c531659141344cd1fd0a4f28419497f9722a3daafe3b4186f6b6457e090600090a35050565b600354600160a01b900460ff16156117945760405162461bcd60e51b815260206004820152601060248201526f14185d5cd8589b194e881c185d5cd95960821b6044820152606401610648565b6003805460ff60a01b1916600160a01b1790557f62e78cea01bee320cd4e420270b5ea74000d11b0c9f74754ebdbfc544b05a2586113be3390565b816001600160a01b0316836001600160a01b031614156118435760405162461bcd60e51b815260206004820152602960248201527f455243313135353a2073657474696e6720617070726f76616c20737461747573604482015268103337b91039b2b63360b91b6064820152608401610648565b6001600160a01b03838116600081815260016020908152604080832094871680845294825291829020805460ff191686151590811790915591519182527f17307eab39ab6107e8899845ad3d59bd9653f200f220920489ca2b5937696c31910160405180910390a3505050565b6001600160a01b0384166118d65760405162461bcd60e51b81526004016106489061304f565b336118e68187876114ac88611ef9565b6000848152602081815260408083206001600160a01b038a168452909152902054838110156119275760405162461bcd60e51b8152600401610648906130d7565b6000858152602081815260408083206001600160a01b038b8116855292528083208785039055908816825281208054869290611964908490613304565b909155505060408051868152602081018690526001600160a01b03808916928a821692918616917fc3d58168c5ae7397731d063d5bbf3d657854427343f4c083240f7aacaa2d0f62910160405180910390a46119c4828888888888611f52565b50505050505050565b6001600160a01b0383166119f35760405162461bcd60e51b815260040161064890613094565b33611a2281856000611a0487611ef9565b611a0d87611ef9565b60405180602001604052806000815250611af3565b6000838152602081815260408083206001600160a01b038816845290915290205482811015611a635760405162461bcd60e51b815260040161064890612fc2565b6000848152602081815260408083206001600160a01b03898116808652918452828520888703905582518981529384018890529092908616917fc3d58168c5ae7397731d063d5bbf3d657854427343f4c083240f7aacaa2d0f62910160405180910390a45050505050565b60006001600160e01b03198216637965db0b60e01b1480610691575061069182610f38565b6111e586868686868661201c565b6001600160a01b0384163b156111e55760405163bc197c8160e01b81526001600160a01b0385169063bc197c8190611b459089908990889088908890600401612e47565b602060405180830381600087803b158015611b5f57600080fd5b505af1925050508015611b8f575060408051601f3d908101601f19168201909252611b8c91810190612c45565b60015b611c3c57611b9b61355b565b806308c379a01415611bd55750611bb0613572565b80611bbb5750611bd7565b8060405162461bcd60e51b81526004016106489190612f67565b505b60405162461bcd60e51b815260206004820152603460248201527f455243313135353a207472616e7366657220746f206e6f6e20455243313135356044820152732932b1b2b4bb32b91034b6b83632b6b2b73a32b960611b6064820152608401610648565b6001600160e01b0319811663bc197c8160e01b146119c45760405162461bcd60e51b815260040161064890612f7a565b60606000611c7b83600261331c565b611c86906002613304565b6001600160401b03811115611cab57634e487b7160e01b600052604160045260246000fd5b6040519080825280601f01601f191660200182016040528015611cd5576020820181803683370190505b509050600360fc1b81600081518110611cfe57634e487b7160e01b600052603260045260246000fd5b60200101906001600160f81b031916908160001a905350600f60fb1b81600181518110611d3b57634e487b7160e01b600052603260045260246000fd5b60200101906001600160f81b031916908160001a9053506000611d5f84600261331c565b611d6a906001613304565b90505b6001811115611dfe576f181899199a1a9b1b9c1cb0b131b232b360811b85600f1660108110611dac57634e487b7160e01b600052603260045260246000fd5b1a60f81b828281518110611dd057634e487b7160e01b600052603260045260246000fd5b60200101906001600160f81b031916908160001a90535060049490941c93611df781613496565b9050611d6d565b5083156114345760405162461bcd60e51b815260206004820181905260248201527f537472696e67733a20686578206c656e67746820696e73756666696369656e746044820152606401610648565b60006106917f93ba7bc73db27e96b2137eeda051169315b90b04b32ae0319e9d76cffb4c376783356020850135611e876040870187613259565b6060880135611e9960408a018a613259565b604051611ea7929190612d3d565b604051908190038120611ec297969594939291602001612f2b565b6040516020818303038152906040528051906020012061216e565b6000806000611eec85856121bc565b91509150610afb8161222c565b60408051600180825281830190925260609160009190602080830190803683370190505090508281600081518110611f4157634e487b7160e01b600052603260045260246000fd5b602090810291909101015292915050565b6001600160a01b0384163b156111e55760405163f23a6e6160e01b81526001600160a01b0385169063f23a6e6190611f969089908990889088908890600401612ea5565b602060405180830381600087803b158015611fb057600080fd5b505af1925050508015611fe0575060408051601f3d908101601f19168201909252611fdd91810190612c45565b60015b611fec57611b9b61355b565b6001600160e01b0319811663f23a6e6160e01b146119c45760405162461bcd60e51b815260040161064890612f7a565b61202a86868686868661242d565b6001600160a01b0385166120cd5760005b83518110156120cb5782818151811061206457634e487b7160e01b600052603260045260246000fd5b60200260200101516004600086848151811061209057634e487b7160e01b600052603260045260246000fd5b6020026020010151815260200190815260200160002060008282546120b59190613304565b909155506120c4905081613514565b905061203b565b505b6001600160a01b0384166111e55760005b83518110156119c45782818151811061210757634e487b7160e01b600052603260045260246000fd5b60200260200101516004600086848151811061213357634e487b7160e01b600052603260045260246000fd5b602002602001015181526020019081526020016000206000828254612158919061333b565b90915550612167905081613514565b90506120de565b600061069161217b61249c565b8360405161190160f01b6020820152602281018390526042810182905260009060620160405160208183030381529060405280519060200120905092915050565b6000808251604114156121f35760208301516040840151606085015160001a6121e7878285856125c6565b94509450505050612225565b82516040141561221d57602083015160408401516122128683836126b3565b935093505050612225565b506000905060025b9250929050565b600081600481111561224e57634e487b7160e01b600052602160045260246000fd5b14156122575750565b600181600481111561227957634e487b7160e01b600052602160045260246000fd5b14156122c75760405162461bcd60e51b815260206004820152601860248201527f45434453413a20696e76616c6964207369676e617475726500000000000000006044820152606401610648565b60028160048111156122e957634e487b7160e01b600052602160045260246000fd5b14156123375760405162461bcd60e51b815260206004820152601f60248201527f45434453413a20696e76616c6964207369676e6174757265206c656e677468006044820152606401610648565b600381600481111561235957634e487b7160e01b600052602160045260246000fd5b14156123b25760405162461bcd60e51b815260206004820152602260248201527f45434453413a20696e76616c6964207369676e6174757265202773272076616c604482015261756560f01b6064820152608401610648565b60048160048111156123d457634e487b7160e01b600052602160045260246000fd5b1415610ef25760405162461bcd60e51b815260206004820152602260248201527f45434453413a20696e76616c6964207369676e6174757265202776272076616c604482015261756560f01b6064820152608401610648565b600354600160a01b900460ff16156111e55760405162461bcd60e51b815260206004820152602c60248201527f455243313135355061757361626c653a20746f6b656e207472616e736665722060448201526b1dda1a5b19481c185d5cd95960a21b6064820152608401610648565b6000306001600160a01b037f0000000000000000000000000000000000000000000000000000000000000000161480156124f557507f000000000000000000000000000000000000000000000000000000000000000046145b1561251f57507f000000000000000000000000000000000000000000000000000000000000000090565b50604080517f00000000000000000000000000000000000000000000000000000000000000006020808301919091527f0000000000000000000000000000000000000000000000000000000000000000828401527f000000000000000000000000000000000000000000000000000000000000000060608301524660808301523060a0808401919091528351808403909101815260c0909201909252805191012090565b90565b6000807f7fffffffffffffffffffffffffffffff5d576e7357a4501ddfe92f46681b20a08311156125fd57506000905060036126aa565b8460ff16601b1415801561261557508460ff16601c14155b1561262657506000905060046126aa565b6040805160008082526020820180845289905260ff881692820192909252606081018690526080810185905260019060a0016020604051602081039080840390855afa15801561267a573d6000803e3d6000fd5b5050604051601f1901519150506001600160a01b0381166126a3576000600192509250506126aa565b9150600090505b94509492505050565b6000806001600160ff1b03831660ff84901c601b016126d4878288856125c6565b935093505050935093915050565b8280546126ee906134ad565b90600052602060002090601f0160209004810192826127105760008555612756565b82601f1061272957805160ff1916838001178555612756565b82800160010185558215612756579182015b8281111561275657825182559160200191906001019061273b565b50612762929150612766565b5090565b5b808211156127625760008155600101612767565b60006001600160401b0383111561279457612794613545565b6040516127ab601f8501601f1916602001826134e8565b8091508381528484840111156127c057600080fd5b83836020830137600060208583010152509392505050565b80356001600160a01b03811681146127ef57600080fd5b919050565b600082601f830112612804578081fd5b813560206128118261329d565b60405161281e82826134e8565b8381528281019150858301600585901b8701840188101561283d578586fd5b855b8581101561285b5781358452928401929084019060010161283f565b5090979650505050505050565b600082601f830112612878578081fd5b6114348383356020850161277b565b600060208284031215612898578081fd5b611434826127d8565b600080604083850312156128b3578081fd5b6128bc836127d8565b91506128ca602084016127d8565b90509250929050565b600080600080600060a086880312156128ea578081fd5b6128f3866127d8565b9450612901602087016127d8565b935060408601356001600160401b038082111561291c578283fd5b61292889838a016127f4565b9450606088013591508082111561293d578283fd5b61294989838a016127f4565b9350608088013591508082111561295e578283fd5b5061296b88828901612868565b9150509295509295909350565b600080600080600060a0868803121561298f578081fd5b612998866127d8565b94506129a6602087016127d8565b9350604086013592506060860135915060808601356001600160401b038111156129ce578182fd5b61296b88828901612868565b6000806000606084860312156129ee578283fd5b6129f7846127d8565b925060208401356001600160401b0380821115612a12578384fd5b612a1e878388016127f4565b93506040860135915080821115612a33578283fd5b50612a40868287016127f4565b9150509250925092565b60008060408385031215612a5c578182fd5b612a65836127d8565b915060208301358015158114612a79578182fd5b809150509250929050565b60008060408385031215612a96578182fd5b612a9f836127d8565b915060208301356001600160401b03811115612ab9578182fd5b830160a08186031215612a79578182fd5b60008060408385031215612adc578182fd5b612ae5836127d8565b946020939093013593505050565b600080600060608486031215612b07578081fd5b612b10846127d8565b95602085013595506040909401359392505050565b60008060408385031215612b37578182fd5b82356001600160401b0380821115612b4d578384fd5b818501915085601f830112612b60578384fd5b81356020612b6d8261329d565b604051612b7a82826134e8565b8381528281019150858301600585901b870184018b1015612b99578889fd5b8896505b84871015612bc257612bae816127d8565b835260019690960195918301918301612b9d565b5096505086013592505080821115612bd8578283fd5b50612be5858286016127f4565b9150509250929050565b600060208284031215612c00578081fd5b5035919050565b60008060408385031215612c19578182fd5b823591506128ca602084016127d8565b600060208284031215612c3a578081fd5b81356114348161373a565b600060208284031215612c56578081fd5b81516114348161373a565b60008060408385031215612c73578182fd5b8235915060208301356001600160401b03811115612c8f578182fd5b8301601f81018513612c9f578182fd5b612be58582356020840161277b565b6000815180845260208085019450808401835b83811015612cdd57815187529582019590820190600101612cc1565b509495945050505050565b81835281816020850137506000828201602090810191909152601f909101601f19169091010190565b60008151808452612d29816020860160208601613466565b601f01601f19169290920160200192915050565b8183823760009101908152919050565b600083516020612d608285838901613466565b8184019150828554612d71816134ad565b60018281168015612d895760018114612d9a57612dc3565b60ff19841687528287019450612dc3565b898852858820885b84811015612dbb57815489820152908301908701612da2565b505082870194505b50929998505050505050505050565b7f416363657373436f6e74726f6c3a206163636f756e7420000000000000000000815260008351612e0a816017850160208801613466565b7001034b99036b4b9b9b4b733903937b6329607d1b6017918401918201528351612e3b816028840160208801613466565b01602801949350505050565b6001600160a01b0386811682528516602082015260a060408201819052600090612e7390830186612cae565b8281036060840152612e858186612cae565b90508281036080840152612e998185612d11565b98975050505050505050565b6001600160a01b03868116825285166020820152604081018490526060810183905260a060808201819052600090612edf90830184612d11565b979650505050505050565b6020815260006114346020830184612cae565b604081526000612f106040830185612cae565b8281036020840152612f228185612cae565b95945050505050565b87815286602082015285604082015260c060608201526000612f5160c083018688612ce8565b60808301949094525060a0015295945050505050565b6020815260006114346020830184612d11565b60208082526028908201527f455243313135353a204552433131353552656365697665722072656a656374656040820152676420746f6b656e7360c01b606082015260800190565b60208082526024908201527f455243313135353a206275726e20616d6f756e7420657863656564732062616c604082015263616e636560e01b606082015260800190565b60208082526029908201527f455243313135353a2063616c6c6572206973206e6f74206f776e6572206e6f7260408201526808185c1c1c9bdd995960ba1b606082015260800190565b60208082526025908201527f455243313135353a207472616e7366657220746f20746865207a65726f206164604082015264647265737360d81b606082015260800190565b60208082526023908201527f455243313135353a206275726e2066726f6d20746865207a65726f206164647260408201526265737360e81b606082015260800190565b6020808252602a908201527f455243313135353a20696e73756666696369656e742062616c616e636520666f60408201526939103a3930b739b332b960b11b606082015260800190565b6020808252818101527f4f776e61626c653a2063616c6c6572206973206e6f7420746865206f776e6572604082015260600190565b60208082526028908201527f455243313135353a2069647320616e6420616d6f756e7473206c656e677468206040820152670dad2e6dac2e8c6d60c31b606082015260800190565b60408152823560408201526020830135606082015260006131c260408501856132c0565b60a060808501526131d760e085018284612ce8565b915050606085013560a08401526131f160808601866132c0565b848303603f190160c0860152613208838284612ce8565b935050505060018060a01b03831660208301529392505050565b85815284602082015260a06040820152600061324160a0830186612d11565b8460608401528281036080840152612e998185612d11565b6000808335601e1984360301811261326f578283fd5b8301803591506001600160401b03821115613288578283fd5b60200191503681900382131561222557600080fd5b60006001600160401b038211156132b6576132b6613545565b5060051b60200190565b6000808335601e198436030181126132d6578283fd5b83016020810192503590506001600160401b038111156132f557600080fd5b80360383131561222557600080fd5b600082198211156133175761331761352f565b500190565b60008160001904831182151516156133365761333661352f565b500290565b60008282101561334d5761334d61352f565b500390565b5b8181101561096a5760008155600101613353565b6001600160401b0383111561337e5761337e613545565b61338881546134ad565b600080601f8611601f8411818117156133a75760008681526020902092505b80156133d657601f880160051c830160208910156133c25750825b6133d4601f870160051c850182613352565b505b50806001811461340a576000945087156133f1578387013594505b600188901b60001960038a901b1c19861617865561345c565b601f198816945082845b868110156134345788860135825560209586019560019092019101613414565b50888610156134515760001960f88a60031b161c19858901351681555b5060018860011b0186555b5050505050505050565b60005b83811015613481578181015183820152602001613469565b83811115613490576000848401525b50505050565b6000816134a5576134a561352f565b506000190190565b600181811c908216806134c157607f821691505b602082108114156134e257634e487b7160e01b600052602260045260246000fd5b50919050565b601f8201601f191681016001600160401b038111828210171561350d5761350d613545565b6040525050565b60006000198214156135285761352861352f565b5060010190565b634e487b7160e01b600052601160045260246000fd5b634e487b7160e01b600052604160045260246000fd5b600060033d11156125c357600481823e5160e01c90565b600060443d10156135805790565b6040516003193d81016004833e81513d6001600160401b0381602484011181841117156135af57505050505090565b82850191508151818111156135c75750505050505090565b843d87010160208285010111156135e15750505050505090565b6135f0602082860101876134e8565b509095945050505050565b813581556001602080840135828401556002830161361c6040860186613259565b6001600160401b0381111561363357613633613545565b61363d83546134ad565b600080601f8411601f84118181171561365c5760008881526020902092505b801561368a57601f860160051c8301898710156136765750825b613688601f870160051c850182613352565b505b5080600181146136be576000945085156136a5578387013594505b600186901b600019600388901b1c19861617885561370b565b601f198616945082845b868110156136e557888601358255948a0194908b01908a016136c8565b50868610156137025760001960f88860031b161c19858901351681555b5089868b1b0188555b505050505050505050506060820135600382015561372c6080830183613259565b613490818360048601613367565b6001600160e01b031981168114610ef257600080fdfea26469706673582212201841b390b7156846884bb6c91d00bf76750ad3afd70c93f37662137ce0e7538264736f6c634300080400339f2df0fed2c77648de5860a4cc508cd0818c85b8b8a1ab4ceeef8d981c8956a6a264697066735822122010f88390f32b3800be0bd93bae741fe8801166ac57020889a557d992106976d164736f6c63430008040033",
  "linkReferences": {},
  "deployedLinkReferences": {}
}