{
  "_format": "hh-sol-artifact-1",
  "contractName": "LazyMint",
  "sourceName": "contracts/LazyMint.sol",
  "abi": [
    {
      "inputs": [
        {
          "internalType": "address payable",
          "name": "minter",
          "type": "address"
        }
      ],
      "stateMutability": "nonpayable",
      "type": "constructor"
    },
    {
      "anonymous": false,
      "inputs": [
        {
          "indexed": true,
          "internalType": "bytes32",
          "name": "role",
          "type": "bytes32"
        },
        {
          "indexed": true,
          "internalType": "bytes32",
          "name": "previousAdminRole",
          "type": "bytes32"
        },
        {
          "indexed": true,
          "internalType": "bytes32",
          "name": "newAdminRole",
          "type": "bytes32"
        }
      ],
      "name": "RoleAdminChanged",
      "type": "event"
    },
    {
      "anonymous": false,
      "inputs": [
        {
          "indexed": true,
          "internalType": "bytes32",
          "name": "role",
          "type": "bytes32"
        },
        {
          "indexed": true,
          "internalType": "address",
          "name": "account",
          "type": "address"
        },
        {
          "indexed": true,
          "internalType": "address",
          "name": "sender",
          "type": "address"
        }
      ],
      "name": "RoleGranted",
      "type": "event"
    },
    {
      "anonymous": false,
      "inputs": [
        {
          "indexed": true,
          "internalType": "bytes32",
          "name": "role",
          "type": "bytes32"
        },
        {
          "indexed": true,
          "internalType": "address",
          "name": "account",
          "type": "address"
        },
        {
          "indexed": true,
          "internalType": "address",
          "name": "sender",
          "type": "address"
        }
      ],
      "name": "RoleRevoked",
      "type": "event"
    },
    {
      "inputs": [],
      "name": "DEFAULT_ADMIN_ROLE",
      "outputs": [
        {
          "internalType": "bytes32",
          "name": "",
          "type": "bytes32"
        }
      ],
      "stateMutability": "view",
      "type": "function"
    },
    {
      "inputs": [],
      "name": "MINTER_ROLE",
      "outputs": [
        {
          "internalType": "bytes32",
          "name": "",
          "type": "bytes32"
        }
      ],
      "stateMutability": "view",
      "type": "function"
    },
    {
      "inputs": [],
      "name": "getChainID",
      "outputs": [
        {
          "internalType": "uint256",
          "name": "",
          "type": "uint256"
        }
      ],
      "stateMutability": "view",
      "type": "function"
    },
    {
      "inputs": [
        {
          "internalType": "bytes32",
          "name": "role",
          "type": "bytes32"
        }
      ],
      "name": "getRoleAdmin",
      "outputs": [
        {
          "internalType": "bytes32",
          "name": "",
          "type": "bytes32"
        }
      ],
      "stateMutability": "view",
      "type": "function"
    },
    {
      "inputs": [
        {
          "internalType": "bytes32",
          "name": "role",
          "type": "bytes32"
        },
        {
          "internalType": "address",
          "name": "account",
          "type": "address"
        }
      ],
      "name": "grantRole",
      "outputs": [],
      "stateMutability": "nonpayable",
      "type": "function"
    },
    {
      "inputs": [
        {
          "internalType": "bytes32",
          "name": "role",
          "type": "bytes32"
        },
        {
          "internalType": "address",
          "name": "account",
          "type": "address"
        }
      ],
      "name": "hasRole",
      "outputs": [
        {
          "internalType": "bool",
          "name": "",
          "type": "bool"
        }
      ],
      "stateMutability": "view",
      "type": "function"
    },
    {
      "inputs": [
        {
          "internalType": "bytes32",
          "name": "role",
          "type": "bytes32"
        },
        {
          "internalType": "address",
          "name": "account",
          "type": "address"
        }
      ],
      "name": "renounceRole",
      "outputs": [],
      "stateMutability": "nonpayable",
      "type": "function"
    },
    {
      "inputs": [
        {
          "internalType": "bytes32",
          "name": "role",
          "type": "bytes32"
        },
        {
          "internalType": "address",
          "name": "account",
          "type": "address"
        }
      ],
      "name": "revokeRole",
      "outputs": [],
      "stateMutability": "nonpayable",
      "type": "function"
    },
    {
      "inputs": [
        {
          "internalType": "bytes4",
          "name": "interfaceId",
          "type": "bytes4"
        }
      ],
      "name": "supportsInterface",
      "outputs": [
        {
          "internalType": "bool",
          "name": "",
          "type": "bool"
        }
      ],
      "stateMutability": "view",
      "type": "function"
    }
  ],
  "bytecode": "0x61014060405234801561001157600080fd5b50604051610a41380380610a41833981016040819052610030916101fa565b604080518082018252600481526326a0ac2d60e11b6020808301918252835180850190945260018452603160f81b908401528151902060e08190527fc89efdaa54c0f20c7adf612882df0950f5a951637e0307cdcb4c672f298b8bc66101008190524660a0529192917f8b73c3c69bb8fe3d512ecc4cf759cc79239f7b179b0ffacaa9a75d522b39400f6101098184846040805160208101859052908101839052606081018290524660808201523060a082015260009060c0016040516020818303038152906040528051906020012090509392505050565b6080523060601b60c052610120525061014892507f9f2df0fed2c77648de5860a4cc508cd0818c85b8b8a1ab4ceeef8d981c8956a6915083905061014e565b50610228565b610158828261015c565b5050565b6000828152602081815260408083206001600160a01b038516845290915290205460ff16610158576000828152602081815260408083206001600160a01b03851684529091529020805460ff191660011790556101b63390565b6001600160a01b0316816001600160a01b0316837f2f8788117e7eff1d82e926ec794901d17c78024a50270940304540a733656f0d60405160405180910390a45050565b60006020828403121561020b578081fd5b81516001600160a01b0381168114610221578182fd5b9392505050565b60805160a05160c05160601c60e05161010051610120516107d96102686000396000505060005050600050506000505060005050600050506107d96000f3fe608060405234801561001057600080fd5b50600436106100935760003560e01c8063564b81ef11610066578063564b81ef1461011957806391d148541461011f578063a217fddf14610132578063d53913931461013a578063d547741f1461016157600080fd5b806301ffc9a714610098578063248a9ca3146100c05780632f2ff15d146100f157806336568abe14610106575b600080fd5b6100ab6100a636600461063f565b610174565b60405190151581526020015b60405180910390f35b6100e36100ce3660046105ed565b60009081526020819052604090206001015490565b6040519081526020016100b7565b6101046100ff366004610605565b610185565b005b610104610114366004610605565b6101b0565b466100e3565b6100ab61012d366004610605565b610233565b6100e3600081565b6100e37f9f2df0fed2c77648de5860a4cc508cd0818c85b8b8a1ab4ceeef8d981c8956a681565b61010461016f366004610605565b61025c565b600061017f82610282565b92915050565b6000828152602081905260409020600101546101a181336102b7565b6101ab838361031b565b505050565b6001600160a01b03811633146102255760405162461bcd60e51b815260206004820152602f60248201527f416363657373436f6e74726f6c3a2063616e206f6e6c792072656e6f756e636560448201526e103937b632b9903337b91039b2b63360891b60648201526084015b60405180910390fd5b61022f828261039f565b5050565b6000918252602082815260408084206001600160a01b0393909316845291905290205460ff1690565b60008281526020819052604090206001015461027881336102b7565b6101ab838361039f565b60006001600160e01b03198216637965db0b60e01b148061017f57506301ffc9a760e01b6001600160e01b031983161461017f565b6102c18282610233565b61022f576102d9816001600160a01b03166014610404565b6102e4836020610404565b6040516020016102f5929190610667565b60408051601f198184030181529082905262461bcd60e51b825261021c916004016106dc565b6103258282610233565b61022f576000828152602081815260408083206001600160a01b03851684529091529020805460ff1916600117905561035b3390565b6001600160a01b0316816001600160a01b0316837f2f8788117e7eff1d82e926ec794901d17c78024a50270940304540a733656f0d60405160405180910390a45050565b6103a98282610233565b1561022f576000828152602081815260408083206001600160a01b0385168085529252808320805460ff1916905551339285917ff6391f5c32d9c69d2a47ea670b442974b53935d1edc7fd64eb21e047a839171b9190a45050565b60606000610413836002610727565b61041e90600261070f565b67ffffffffffffffff81111561044457634e487b7160e01b600052604160045260246000fd5b6040519080825280601f01601f19166020018201604052801561046e576020820181803683370190505b509050600360fc1b8160008151811061049757634e487b7160e01b600052603260045260246000fd5b60200101906001600160f81b031916908160001a905350600f60fb1b816001815181106104d457634e487b7160e01b600052603260045260246000fd5b60200101906001600160f81b031916908160001a90535060006104f8846002610727565b61050390600161070f565b90505b6001811115610597576f181899199a1a9b1b9c1cb0b131b232b360811b85600f166010811061054557634e487b7160e01b600052603260045260246000fd5b1a60f81b82828151811061056957634e487b7160e01b600052603260045260246000fd5b60200101906001600160f81b031916908160001a90535060049490941c9361059081610776565b9050610506565b5083156105e65760405162461bcd60e51b815260206004820181905260248201527f537472696e67733a20686578206c656e67746820696e73756666696369656e74604482015260640161021c565b9392505050565b6000602082840312156105fe578081fd5b5035919050565b60008060408385031215610617578081fd5b8235915060208301356001600160a01b0381168114610634578182fd5b809150509250929050565b600060208284031215610650578081fd5b81356001600160e01b0319811681146105e6578182fd5b7f416363657373436f6e74726f6c3a206163636f756e742000000000000000000081526000835161069f816017850160208801610746565b7001034b99036b4b9b9b4b733903937b6329607d1b60179184019182015283516106d0816028840160208801610746565b01602801949350505050565b60208152600082518060208401526106fb816040850160208701610746565b601f01601f19169190910160400192915050565b600082198211156107225761072261078d565b500190565b60008160001904831182151516156107415761074161078d565b500290565b60005b83811015610761578181015183820152602001610749565b83811115610770576000848401525b50505050565b6000816107855761078561078d565b506000190190565b634e487b7160e01b600052601160045260246000fdfea2646970667358221220021c8d9cec178f9c406f01ee14e940863a757183de6fc0e8405a7b3be5afa14264736f6c63430008040033",
  "linkReferences": {},
  "deployedLinkReferences": {}
}